{
  "contractName": "Lease",
  "abi": [
    {
      "inputs": [
        {
          "internalType": "address payable",
          "name": "_primaryTenant",
          "type": "address"
        },
        {
          "internalType": "uint256",
          "name": "duration",
          "type": "uint256"
        }
      ],
      "stateMutability": "payable",
      "type": "constructor",
      "payable": true
    },
    {
      "anonymous": false,
      "inputs": [],
      "name": "Aborted",
      "type": "event"
    },
    {
      "anonymous": false,
      "inputs": [
        {
          "indexed": false,
          "internalType": "address",
          "name": "landlord",
          "type": "address"
        },
        {
          "indexed": false,
          "internalType": "address",
          "name": "tenant",
          "type": "address"
        },
        {
          "indexed": false,
          "internalType": "string",
          "name": "propertyAddress",
          "type": "string"
        }
      ],
      "name": "AgreementReached",
      "type": "event"
    },
    {
      "anonymous": false,
      "inputs": [
        {
          "indexed": false,
          "internalType": "uint8",
          "name": "term",
          "type": "uint8"
        },
        {
          "indexed": false,
          "internalType": "uint256",
          "name": "rent",
          "type": "uint256"
        },
        {
          "indexed": false,
          "internalType": "uint256",
          "name": "securityDeposit",
          "type": "uint256"
        },
        {
          "indexed": false,
          "internalType": "address",
          "name": "sender",
          "type": "address"
        }
      ],
      "name": "OfferMade",
      "type": "event"
    },
    {
      "inputs": [
        {
          "internalType": "address",
          "name": "",
          "type": "address"
        }
      ],
      "name": "balancesDue",
      "outputs": [
        {
          "internalType": "uint256",
          "name": "",
          "type": "uint256"
        }
      ],
      "stateMutability": "view",
      "type": "function",
      "constant": true
    },
    {
      "inputs": [],
      "name": "counterOffer",
      "outputs": [
        {
          "internalType": "uint8",
          "name": "term",
          "type": "uint8"
        },
        {
          "internalType": "uint256",
          "name": "rent",
          "type": "uint256"
        },
        {
          "internalType": "uint256",
          "name": "securityDeposit",
          "type": "uint256"
        }
      ],
      "stateMutability": "view",
      "type": "function",
      "constant": true
    },
    {
      "inputs": [],
      "name": "currentMonth",
      "outputs": [
        {
          "internalType": "uint8",
          "name": "",
          "type": "uint8"
        }
      ],
      "stateMutability": "view",
      "type": "function",
      "constant": true
    },
    {
      "inputs": [],
      "name": "currentState",
      "outputs": [
        {
          "internalType": "enum Lease.State",
          "name": "",
          "type": "uint8"
        }
      ],
      "stateMutability": "view",
      "type": "function",
      "constant": true
    },
    {
      "inputs": [],
      "name": "expiration",
      "outputs": [
        {
          "internalType": "uint256",
          "name": "",
          "type": "uint256"
        }
      ],
      "stateMutability": "view",
      "type": "function",
      "constant": true
    },
    {
      "inputs": [],
      "name": "landlord",
      "outputs": [
        {
          "internalType": "address payable",
          "name": "",
          "type": "address"
        }
      ],
      "stateMutability": "view",
      "type": "function",
      "constant": true
    },
    {
      "inputs": [
        {
          "internalType": "uint8",
          "name": "",
          "type": "uint8"
        }
      ],
      "name": "monthsPaid",
      "outputs": [
        {
          "internalType": "bool",
          "name": "",
          "type": "bool"
        }
      ],
      "stateMutability": "view",
      "type": "function",
      "constant": true
    },
    {
      "inputs": [],
      "name": "offer",
      "outputs": [
        {
          "internalType": "uint8",
          "name": "term",
          "type": "uint8"
        },
        {
          "internalType": "uint256",
          "name": "rent",
          "type": "uint256"
        },
        {
          "internalType": "uint256",
          "name": "securityDeposit",
          "type": "uint256"
        }
      ],
      "stateMutability": "view",
      "type": "function",
      "constant": true
    },
    {
      "inputs": [],
      "name": "primaryTenant",
      "outputs": [
        {
          "internalType": "address payable",
          "name": "",
          "type": "address"
        }
      ],
      "stateMutability": "view",
      "type": "function",
      "constant": true
    },
    {
      "inputs": [],
      "name": "property",
      "outputs": [
        {
          "internalType": "string",
          "name": "streetAddress",
          "type": "string"
        },
        {
          "internalType": "uint256",
          "name": "numBeds",
          "type": "uint256"
        },
        {
          "internalType": "uint256",
          "name": "sqFt",
          "type": "uint256"
        }
      ],
      "stateMutability": "view",
      "type": "function",
      "constant": true
    },
    {
      "inputs": [
        {
          "internalType": "string",
          "name": "_streetAddress",
          "type": "string"
        },
        {
          "internalType": "uint256",
          "name": "_numBeds",
          "type": "uint256"
        },
        {
          "internalType": "uint256",
          "name": "_sqFt",
          "type": "uint256"
        }
      ],
      "name": "setProperty",
      "outputs": [],
      "stateMutability": "nonpayable",
      "type": "function"
    },
    {
      "inputs": [
        {
          "internalType": "uint8",
          "name": "_term",
          "type": "uint8"
        },
        {
          "internalType": "uint256",
          "name": "_rent",
          "type": "uint256"
        },
        {
          "internalType": "uint256",
          "name": "_securityDeposit",
          "type": "uint256"
        }
      ],
      "name": "makeOffer",
      "outputs": [],
      "stateMutability": "nonpayable",
      "type": "function"
    },
    {
      "inputs": [],
      "name": "abort",
      "outputs": [],
      "stateMutability": "nonpayable",
      "type": "function"
    },
    {
      "inputs": [
        {
          "internalType": "uint256",
          "name": "timeToAdd",
          "type": "uint256"
        }
      ],
      "name": "extendContract",
      "outputs": [],
      "stateMutability": "nonpayable",
      "type": "function"
    },
    {
      "inputs": [
        {
          "internalType": "uint8",
          "name": "_term",
          "type": "uint8"
        },
        {
          "internalType": "uint256",
          "name": "_rent",
          "type": "uint256"
        },
        {
          "internalType": "uint256",
          "name": "_securityDeposit",
          "type": "uint256"
        }
      ],
      "name": "makeCounterOffer",
      "outputs": [],
      "stateMutability": "nonpayable",
      "type": "function"
    },
    {
      "inputs": [],
      "name": "sign",
      "outputs": [],
      "stateMutability": "nonpayable",
      "type": "function"
    },
    {
      "inputs": [],
      "name": "paySD",
      "outputs": [],
      "stateMutability": "payable",
      "type": "function",
      "payable": true
    },
    {
      "inputs": [],
      "name": "payRent",
      "outputs": [],
      "stateMutability": "payable",
      "type": "function",
      "payable": true
    }
  ],
  "bytecode": "0x60806040526001600e60006101000a81548160ff021916908360ff160217905550604051620024ab380380620024ab8339818101604052604081101561004457600080fd5b81019080805190602001909291908051906020019092919050505081600160006101000a81548173ffffffffffffffffffffffffffffffffffffffff021916908373ffffffffffffffffffffffffffffffffffffffff160217905550336000806101000a81548173ffffffffffffffffffffffffffffffffffffffff021916908373ffffffffffffffffffffffffffffffffffffffff1602179055506100f4428261010160201b611fcf1760201c565b600b819055505050610189565b60008082840190508381101561017f576040517f08c379a000000000000000000000000000000000000000000000000000000000815260040180806020018281038252601b8152602001807f536166654d6174683a206164646974696f6e206f766572666c6f77000000000081525060200191505060405180910390fd5b8091505092915050565b61231280620001996000396000f3fe6080604052600436106101095760003560e01c8063862a4d4711610095578063c028df0611610064578063c028df0614610405578063cd937f5d14610441578063dc1997ea14610493578063f2c98d3d146104d4578063f5ad5a0f146105b057610109565b8063862a4d47146103825780638a7f98b2146103b057806393b515f9146103f1578063a709c4fe146103fb57610109565b80632728a437116100dc5780632728a437146102995780632aa26477146102d55780632ca151221461032957806335a063b4146103405780634665096d1461035757610109565b80630c3f6acf1461010e5780631259c1a114610144578063176fd3f0146101a957806320874a5614610247575b600080fd5b34801561011a57600080fd5b506101236105eb565b6040518082600381111561013357fe5b815260200191505060405180910390f35b34801561015057600080fd5b506101936004803603602081101561016757600080fd5b81019080803573ffffffffffffffffffffffffffffffffffffffff1690602001909291905050506105fe565b6040518082815260200191505060405180910390f35b3480156101b557600080fd5b506101be610616565b6040518080602001848152602001838152602001828103825285818151815260200191508051906020019080838360005b8381101561020a5780820151818401526020810190506101ef565b50505050905090810190601f1680156102375780820380516001836020036101000a031916815260200191505b5094505050505060405180910390f35b34801561025357600080fd5b506102976004803603606081101561026a57600080fd5b81019080803560ff16906020019092919080359060200190929190803590602001909291905050506106c6565b005b3480156102a557600080fd5b506102ae610a8c565b604051808460ff168152602001838152602001828152602001935050505060405180910390f35b3480156102e157600080fd5b50610311600480360360208110156102f857600080fd5b81019080803560ff169060200190929190505050610ab1565b60405180821515815260200191505060405180910390f35b34801561033557600080fd5b5061033e610ad1565b005b34801561034c57600080fd5b50610355610e6d565b005b34801561036357600080fd5b5061036c611033565b6040518082815260200191505060405180910390f35b34801561038e57600080fd5b50610397611039565b604051808260ff16815260200191505060405180910390f35b3480156103bc57600080fd5b506103c561104c565b604051808273ffffffffffffffffffffffffffffffffffffffff16815260200191505060405180910390f35b6103f9611072565b005b610403611446565b005b34801561041157600080fd5b5061041a61195e565b604051808460ff168152602001838152602001828152602001935050505060405180910390f35b34801561044d57600080fd5b506104916004803603606081101561046457600080fd5b81019080803560ff1690602001909291908035906020019092919080359060200190929190505050611983565b005b34801561049f57600080fd5b506104a8611d45565b604051808273ffffffffffffffffffffffffffffffffffffffff16815260200191505060405180910390f35b3480156104e057600080fd5b506105ae600480360360608110156104f757600080fd5b810190808035906020019064010000000081111561051457600080fd5b82018360208201111561052657600080fd5b8035906020019184600183028401116401000000008311171561054857600080fd5b91908080601f016020809104026020016040519081016040528093929190818152602001838380828437600081840152601f19601f8201169050808301925050505050505091929192908035906020019092919080359060200190929190505050611d69565b005b3480156105bc57600080fd5b506105e9600480360360208110156105d357600080fd5b8101908080359060200190929190505050611e5c565b005b600e60019054906101000a900460ff1681565b600c6020528060005260406000206000915090505481565b6002806000018054600181600116156101000203166002900480601f0160208091040260200160405190810160405280929190818152602001828054600181600116156101000203166002900480156106b05780601f10610685576101008083540402835291602001916106b0565b820191906000526020600020905b81548152906001019060200180831161069357829003601f168201915b5050505050908060010154908060020154905083565b600160009054906101000a900473ffffffffffffffffffffffffffffffffffffffff1673ffffffffffffffffffffffffffffffffffffffff163373ffffffffffffffffffffffffffffffffffffffff1614610789576040517f08c379a000000000000000000000000000000000000000000000000000000000815260040180806020018281038252601e8152602001807f43616c6c6572206d757374206265205072696d6172792054656e616e742e000081525060200191505060405180910390fd5b82828260028360ff16101580156107a45750600c8360ff1611155b6107f9576040517f08c379a000000000000000000000000000000000000000000000000000000000815260040180806020018281038252603a8152602001806121e6603a913960400191505060405180910390fd5b60648211801561080a575061271082105b61085f576040517f08c379a000000000000000000000000000000000000000000000000000000000815260040180806020018281038252603a815260200180612241603a913960400191505060405180910390fd5b6032811180156108705750614e2081105b6108c5576040517f08c379a000000000000000000000000000000000000000000000000000000000815260040180806020018281038252603f81526020018061217b603f913960400191505060405180910390fd5b6108d382600260ff16612057565b81111561092b576040517f08c379a00000000000000000000000000000000000000000000000000000000081526004018080602001828103825260388152602001806122a56038913960400191505060405180910390fd5b600080600381111561093957fe5b600e60019054906101000a900460ff16600381111561095457fe5b146109c7576040517f08c379a000000000000000000000000000000000000000000000000000000000815260040180806020018281038252600e8152602001807f496e76616c69642073746174652e00000000000000000000000000000000000081525060200191505060405180910390fd5b86600860000160006101000a81548160ff021916908360ff16021790555085600860010181905550846008600201819055507fb5c98ebbc4629bf5a8301c2911af70aef72eab5b2d6353b37d0aa578e51748d2878787600160009054906101000a900473ffffffffffffffffffffffffffffffffffffffff16604051808560ff1681526020018481526020018381526020018273ffffffffffffffffffffffffffffffffffffffff16815260200194505050505060405180910390a150505050505050565b60088060000160009054906101000a900460ff16908060010154908060020154905083565b600d6020528060005260406000206000915054906101000a900460ff1681565b600160009054906101000a900473ffffffffffffffffffffffffffffffffffffffff1673ffffffffffffffffffffffffffffffffffffffff163373ffffffffffffffffffffffffffffffffffffffff1614610b94576040517f08c379a000000000000000000000000000000000000000000000000000000000815260040180806020018281038252601e8152602001807f43616c6c6572206d757374206265205072696d6172792054656e616e742e000081525060200191505060405180910390fd5b6000806003811115610ba257fe5b600e60019054906101000a900460ff166003811115610bbd57fe5b14610c30576040517f08c379a000000000000000000000000000000000000000000000000000000000815260040180806020018281038252600e8152602001807f496e76616c69642073746174652e00000000000000000000000000000000000081525060200191505060405180910390fd5b600860000160009054906101000a900460ff1660ff16600560000160009054906101000a900460ff1660ff1614610c6657600080fd5b60086001015460056001015414610c7c57600080fd5b60086002015460056002015414610c9257600080fd5b600b544210610ca057600080fd5b6001600e60016101000a81548160ff02191690836003811115610cbf57fe5b0217905550600560020154600c6000600160009054906101000a900473ffffffffffffffffffffffffffffffffffffffff1673ffffffffffffffffffffffffffffffffffffffff1673ffffffffffffffffffffffffffffffffffffffff168152602001908152602001600020819055507f992ec8df78430b8f337dfa63d73e5e91cb7e4055589abafed0551b2e98e050d060008054906101000a900473ffffffffffffffffffffffffffffffffffffffff16600160009054906101000a900473ffffffffffffffffffffffffffffffffffffffff166002600001604051808473ffffffffffffffffffffffffffffffffffffffff1681526020018373ffffffffffffffffffffffffffffffffffffffff16815260200180602001828103825283818154600181600116156101000203166002900481526020019150805460018160011615610100020316600290048015610e5a5780601f10610e2f57610100808354040283529160200191610e5a565b820191906000526020600020905b815481529060010190602001808311610e3d57829003601f168201915b505094505050505060405180910390a150565b60008054906101000a900473ffffffffffffffffffffffffffffffffffffffff1673ffffffffffffffffffffffffffffffffffffffff163373ffffffffffffffffffffffffffffffffffffffff1614610f2e576040517f08c379a00000000000000000000000000000000000000000000000000000000081526004018080602001828103825260188152602001807f43616c6c6572206d757374206265204c616e646c6f72642e000000000000000081525060200191505060405180910390fd5b6000806003811115610f3c57fe5b600e60019054906101000a900460ff166003811115610f5757fe5b14610fca576040517f08c379a000000000000000000000000000000000000000000000000000000000815260040180806020018281038252600e8152602001807f496e76616c69642073746174652e00000000000000000000000000000000000081525060200191505060405180910390fd5b6003600e60016101000a81548160ff02191690836003811115610fe957fe5b02179055507f72c874aeff0b183a56e2b79c71b46e1aed4dee5e09862134b8821ba2fddbf8bf60405160405180910390a13373ffffffffffffffffffffffffffffffffffffffff16ff5b600b5481565b600e60009054906101000a900460ff1681565b600160009054906101000a900473ffffffffffffffffffffffffffffffffffffffff1681565b600160009054906101000a900473ffffffffffffffffffffffffffffffffffffffff1673ffffffffffffffffffffffffffffffffffffffff163373ffffffffffffffffffffffffffffffffffffffff1614611135576040517f08c379a000000000000000000000000000000000000000000000000000000000815260040180806020018281038252601e8152602001807f43616c6c6572206d757374206265205072696d6172792054656e616e742e000081525060200191505060405180910390fd5b600180600381111561114357fe5b600e60019054906101000a900460ff16600381111561115e57fe5b146111d1576040517f08c379a000000000000000000000000000000000000000000000000000000000815260040180806020018281038252600e8152602001807f496e76616c69642073746174652e00000000000000000000000000000000000081525060200191505060405180910390fd5b600560020154341461122e576040517f08c379a000000000000000000000000000000000000000000000000000000000815260040180806020018281038252602a81526020018061227b602a913960400191505060405180910390fd5b600560020154600c6000600160009054906101000a900473ffffffffffffffffffffffffffffffffffffffff1673ffffffffffffffffffffffffffffffffffffffff1673ffffffffffffffffffffffffffffffffffffffff16815260200190815260200160002054146112ec576040517f08c379a000000000000000000000000000000000000000000000000000000000815260040180806020018281038252602c8152602001806121ba602c913960400191505060405180910390fd5b60008054906101000a900473ffffffffffffffffffffffffffffffffffffffff1673ffffffffffffffffffffffffffffffffffffffff166108fc600c6000600160009054906101000a900473ffffffffffffffffffffffffffffffffffffffff1673ffffffffffffffffffffffffffffffffffffffff1673ffffffffffffffffffffffffffffffffffffffff168152602001908152602001600020549081150290604051600060405180830381858888f193505050501580156113b3573d6000803e3d6000fd5b50600560010154600c6000600160009054906101000a900473ffffffffffffffffffffffffffffffffffffffff1673ffffffffffffffffffffffffffffffffffffffff1673ffffffffffffffffffffffffffffffffffffffff168152602001908152602001600020819055506002600e60016101000a81548160ff0219169083600381111561143e57fe5b021790555050565b600160009054906101000a900473ffffffffffffffffffffffffffffffffffffffff1673ffffffffffffffffffffffffffffffffffffffff163373ffffffffffffffffffffffffffffffffffffffff1614611509576040517f08c379a000000000000000000000000000000000000000000000000000000000815260040180806020018281038252601e8152602001807f43616c6c6572206d757374206265205072696d6172792054656e616e742e000081525060200191505060405180910390fd5b600280600381111561151757fe5b600e60019054906101000a900460ff16600381111561153257fe5b146115a5576040517f08c379a000000000000000000000000000000000000000000000000000000000815260040180806020018281038252600e8152602001807f496e76616c69642073746174652e00000000000000000000000000000000000081525060200191505060405180910390fd5b600560010154341461161f576040517f08c379a000000000000000000000000000000000000000000000000000000000815260040180806020018281038252601e8152602001807f796f75206d75737420706179207468652072656e742065786163746c792e000081525060200191505060405180910390fd5b600560010154600c6000600160009054906101000a900473ffffffffffffffffffffffffffffffffffffffff1673ffffffffffffffffffffffffffffffffffffffff1673ffffffffffffffffffffffffffffffffffffffff16815260200190815260200160002054146116fa576040517f08c379a00000000000000000000000000000000000000000000000000000000081526004018080602001828103825260208152602001807f62616c616e63652064756520646f6573206e6f7420657175616c2072656e742e81525060200191505060405180910390fd5b60008054906101000a900473ffffffffffffffffffffffffffffffffffffffff1673ffffffffffffffffffffffffffffffffffffffff166108fc600c6000600160009054906101000a900473ffffffffffffffffffffffffffffffffffffffff1673ffffffffffffffffffffffffffffffffffffffff1673ffffffffffffffffffffffffffffffffffffffff168152602001908152602001600020549081150290604051600060405180830381858888f193505050501580156117c1573d6000803e3d6000fd5b50600560010154600c6000600160009054906101000a900473ffffffffffffffffffffffffffffffffffffffff1673ffffffffffffffffffffffffffffffffffffffff1673ffffffffffffffffffffffffffffffffffffffff168152602001908152602001600020819055506001600d6000600e60009054906101000a900460ff1660ff1660ff16815260200190815260200160002060006101000a81548160ff021916908315150217905550600e600081819054906101000a900460ff168092919060010191906101000a81548160ff021916908360ff16021790555050600560000160009054906101000a900460ff1660ff16600e60009054906101000a900460ff1660ff16111561195b576000600c6000600160009054906101000a900473ffffffffffffffffffffffffffffffffffffffff1673ffffffffffffffffffffffffffffffffffffffff1673ffffffffffffffffffffffffffffffffffffffff168152602001908152602001600020819055506003600e60016101000a81548160ff0219169083600381111561195557fe5b02179055505b50565b60058060000160009054906101000a900460ff16908060010154908060020154905083565b60008054906101000a900473ffffffffffffffffffffffffffffffffffffffff1673ffffffffffffffffffffffffffffffffffffffff163373ffffffffffffffffffffffffffffffffffffffff1614611a44576040517f08c379a00000000000000000000000000000000000000000000000000000000081526004018080602001828103825260188152602001807f43616c6c6572206d757374206265204c616e646c6f72642e000000000000000081525060200191505060405180910390fd5b82828260028360ff1610158015611a5f5750600c8360ff1611155b611ab4576040517f08c379a000000000000000000000000000000000000000000000000000000000815260040180806020018281038252603a8152602001806121e6603a913960400191505060405180910390fd5b606482118015611ac5575061271082105b611b1a576040517f08c379a000000000000000000000000000000000000000000000000000000000815260040180806020018281038252603a815260200180612241603a913960400191505060405180910390fd5b603281118015611b2b5750614e2081105b611b80576040517f08c379a000000000000000000000000000000000000000000000000000000000815260040180806020018281038252603f81526020018061217b603f913960400191505060405180910390fd5b611b8e82600260ff16612057565b811115611be6576040517f08c379a00000000000000000000000000000000000000000000000000000000081526004018080602001828103825260388152602001806122a56038913960400191505060405180910390fd5b6000806003811115611bf457fe5b600e60019054906101000a900460ff166003811115611c0f57fe5b14611c82576040517f08c379a000000000000000000000000000000000000000000000000000000000815260040180806020018281038252600e8152602001807f496e76616c69642073746174652e00000000000000000000000000000000000081525060200191505060405180910390fd5b86600560000160006101000a81548160ff021916908360ff16021790555085600560010181905550846005600201819055507fb5c98ebbc4629bf5a8301c2911af70aef72eab5b2d6353b37d0aa578e51748d287878760008054906101000a900473ffffffffffffffffffffffffffffffffffffffff16604051808560ff1681526020018481526020018381526020018273ffffffffffffffffffffffffffffffffffffffff16815260200194505050505060405180910390a150505050505050565b60008054906101000a900473ffffffffffffffffffffffffffffffffffffffff1681565b60008054906101000a900473ffffffffffffffffffffffffffffffffffffffff1673ffffffffffffffffffffffffffffffffffffffff163373ffffffffffffffffffffffffffffffffffffffff1614611e2a576040517f08c379a00000000000000000000000000000000000000000000000000000000081526004018080602001828103825260188152602001807f43616c6c6572206d757374206265204c616e646c6f72642e000000000000000081525060200191505060405180910390fd5b8260026000019080519060200190611e439291906120dd565b5081600260010181905550806002800181905550505050565b60008054906101000a900473ffffffffffffffffffffffffffffffffffffffff1673ffffffffffffffffffffffffffffffffffffffff163373ffffffffffffffffffffffffffffffffffffffff1614611f1d576040517f08c379a00000000000000000000000000000000000000000000000000000000081526004018080602001828103825260188152602001807f43616c6c6572206d757374206265204c616e646c6f72642e000000000000000081525060200191505060405180910390fd5b6000806003811115611f2b57fe5b600e60019054906101000a900460ff166003811115611f4657fe5b14611fb9576040517f08c379a000000000000000000000000000000000000000000000000000000000815260040180806020018281038252600e8152602001807f496e76616c69642073746174652e00000000000000000000000000000000000081525060200191505060405180910390fd5b611fc5600b5483611fcf565b600b819055505050565b60008082840190508381101561204d576040517f08c379a000000000000000000000000000000000000000000000000000000000815260040180806020018281038252601b8152602001807f536166654d6174683a206164646974696f6e206f766572666c6f77000000000081525060200191505060405180910390fd5b8091505092915050565b60008083141561206a57600090506120d7565b600082840290508284828161207b57fe5b04146120d2576040517f08c379a00000000000000000000000000000000000000000000000000000000081526004018080602001828103825260218152602001806122206021913960400191505060405180910390fd5b809150505b92915050565b828054600181600116156101000203166002900490600052602060002090601f016020900481019282601f1061211e57805160ff191683800117855561214c565b8280016001018555821561214c579182015b8281111561214b578251825591602001919060010190612130565b5b509050612159919061215d565b5090565b5b8082111561217657600081600090555060010161215e565b509056fe526576696577206f666665723b20612076616c6964207365637572697479206465706f736974206973206265747765656e20353020616e642032303030302e62616c616e63652064756520646f6573206e6f7420657175616c207365637572697479206465706f7369742e526576696577206f666665723b20612076616c6964207465726d206973206265747765656e203220616e642031322c20696e636c75736976652e536166654d6174683a206d756c7469706c69636174696f6e206f766572666c6f77526576696577206f666665723b20612076616c69642072656e742076616c7565206973206265747765656e2031303020616e642031303030302e796f75206d7573742070617920746865207365637572697479206465706f7369742065786163746c792e5365637572697479206465706f736974206d757374206e6f742065786365656420747769636520746865206d6f6e74686c792072656e742ea2646970667358221220fdf22ec72c35e90b05943f150171326f1b07a334da2576cd683db9543e47e0b364736f6c634300060c0033",
  "immutableReferences": {},
  "source": "pragma solidity ^0.6.0;\nimport \"./SafeMath.sol\";\n\ncontract Lease {\n    \n    /**\n     * Events\n    */ \n    event AgreementReached(\n        address landlord,\n        address tenant,\n        string propertyAddress\n        \n    );\n    event OfferMade(\n        uint8 term,\n        uint256 rent,\n        uint256 securityDeposit,\n        address sender\n    );\n    event Aborted();\n    \n    /**\n     * Addresses\n    */ \n    address payable public landlord;\n    address payable public primaryTenant;\n    \n    /**\n     * Structs\n    */ \n    struct Property {\n        string streetAddress;\n        uint256 numBeds;\n        uint256 sqFt;\n    }\n    Property public property;\n    \n    struct Offer {\n        uint8 term; //how many months the contract lasts\n        uint256 rent; //monthly rate\n        uint securityDeposit; //security deposit is a multiple of the monthly rent\n    }\n    Offer public offer;\n    \n    struct CounterOffer {\n        uint8 term;\n        uint256 rent;\n        uint256 securityDeposit;\n    }\n    CounterOffer public counterOffer;\n    \n    /*\n    / Variables\n    */ \n    uint8 constant internal SD_LIMIT = 2; //highest multiple allowed for security deposit\n    uint256 public expiration; //time out the offer before activation if no agreement is met\n    \n    mapping (address => uint256) public balancesDue; //key a tenant address to a balance due value\n    mapping (uint8 => bool) public monthsPaid; //key a month (1-12) to true (paid) or false (unpaid)\n    uint8 public currentMonth = 1;\n    \n    enum State{Unsigned, AwaitingDeposit, Active, Closed}\n    State public currentState; //defaults to first value\n    \n    /*\n    / Modifiers\n    */ \n    modifier offerIsValid(uint8 _term, uint256 _rent, uint256 _securityDeposit) {\n        require(\n            _term >= 2 && _term <= 12,\n            \"Review offer; a valid term is between 2 and 12, inclusive.\"\n        );\n        require(\n            _rent > 100 && _rent < 10000,\n            \"Review offer; a valid rent value is between 100 and 10000.\"\n        );\n        require(\n            _securityDeposit > 50 && _securityDeposit < 20000,\n            \"Review offer; a valid security deposit is between 50 and 20000.\"\n        );\n        require (\n            _securityDeposit <= SafeMath.mul(_rent, SD_LIMIT), \n            \"Security deposit must not exceed twice the monthly rent.\"\n        );\n        _;\n    }\n    \n    modifier onlyLandlord() {\n        require (\n            msg.sender == landlord, \n            \"Caller must be Landlord.\"\n        );\n        _;\n    }\n    modifier onlyTenant() {\n        require (\n            msg.sender == primaryTenant, \n            \"Caller must be Primary Tenant.\"\n        );\n        _;\n    }\n    \n    modifier inState(State _state) {\n        require(\n            currentState == _state,\n            \"Invalid state.\"\n        );\n        _;\n    }\n    \n    /*\n    / Constructor\n    */ \n    constructor(address payable _primaryTenant, uint256 duration) \n        public\n        payable\n    {\n        primaryTenant = _primaryTenant;\n        landlord = msg.sender;\n        expiration = SafeMath.add(block.timestamp, duration);\n    }\n    \n    /*\n    / onlyLandlord functions\n    */ \n    function setProperty(string memory _streetAddress, uint256 _numBeds, uint256 _sqFt) \n        public \n        onlyLandlord\n    {\n        property.streetAddress = _streetAddress;\n        property.numBeds = _numBeds;\n        property.sqFt = _sqFt;\n    }\n    \n    function makeOffer(uint8 _term, uint _rent, uint _securityDeposit) \n        public \n        onlyLandlord \n        offerIsValid(_term, _rent, _securityDeposit)\n        inState(State.Unsigned)\n    {\n        offer.term = _term;\n        offer.rent = _rent;\n        offer.securityDeposit = _securityDeposit;\n\n        emit OfferMade(_term, _rent, _securityDeposit, landlord);\n    }\n\n    function abort() //landlord can abort the contract before it has been signed, for example of they find another tenant.\n        public\n        onlyLandlord\n        inState(State.Unsigned)\n    {\n        currentState = State.Closed;\n        emit Aborted();\n        selfdestruct(msg.sender);\n    }\n    \n    function extendContract(uint256 timeToAdd) /// the sender can extend the expiration at any time\n        public \n        onlyLandlord\n        inState(State.Unsigned)\n    {\n        expiration = SafeMath.add(expiration, timeToAdd);\n    }\n    \n    /*\n    / onlyTenant functions\n    */ \n    function makeCounterOffer(uint8 _term, uint _rent, uint _securityDeposit) \n        public \n        onlyTenant \n        offerIsValid(_term, _rent, _securityDeposit)\n        inState(State.Unsigned)\n    {\n        counterOffer.term = _term;\n        counterOffer.rent = _rent;\n        counterOffer.securityDeposit = _securityDeposit;\n\n        emit OfferMade(_term, _rent, _securityDeposit, primaryTenant);\n    }\n    \n    function sign()\n        public \n        onlyTenant\n        inState(State.Unsigned)\n    {\n        require(offer.term == counterOffer.term);\n        require(offer.rent == counterOffer.rent);\n        require(offer.securityDeposit == counterOffer.securityDeposit);\n        \n        require(block.timestamp < expiration); //contract must be signed before the expiration date\n        \n        currentState = State.AwaitingDeposit;\n        balancesDue[primaryTenant] = offer.securityDeposit;\n        \n        emit AgreementReached(landlord, primaryTenant, property.streetAddress);\n\n    }\n\n    function paySD() //activates the contract\n        public\n        payable\n        onlyTenant\n        inState(State.AwaitingDeposit)\n    {\n        require(\n            msg.value == offer.securityDeposit, \n            \"you must pay the security deposit exactly.\"\n        );\n        \n        require(\n            balancesDue[primaryTenant] == offer.securityDeposit, \n            \"balance due does not equal security deposit.\"\n        );\n        landlord.transfer(balancesDue[primaryTenant]);\n        balancesDue[primaryTenant] = offer.rent;\n        \n        currentState = State.Active;\n    }\n    \n    function payRent()\n        public \n        payable\n        onlyTenant\n        inState(State.Active)\n    {\n        require(\n            msg.value == offer.rent, \n            \"you must pay the rent exactly.\"\n        );\n\n        require(\n            balancesDue[primaryTenant] == offer.rent, \n            \"balance due does not equal rent.\"\n        );\n        landlord.transfer(balancesDue[primaryTenant]);\n        balancesDue[primaryTenant] = offer.rent;\n        \n        monthsPaid[currentMonth] = true;\n        currentMonth++;\n        \n        if (currentMonth > offer.term) {\n            balancesDue[primaryTenant] = 0;\n            currentState = State.Closed;\n        }\n    }\n    \n    \n}",
  "sourcePath": "/Users/maxwalts/Desktop/Blockchain@Mich/house-me-now/contracts/Lease.sol",
  "compiler": {
    "name": "solc",
    "version": "0.6.12+commit.27d51765.Emscripten.clang"
  },
  "schemaVersion": "3.2.3",
  "updatedAt": "2020-08-16T08:22:40.992Z",
  "networkType": "ethereum",
  "devdoc": {
    "kind": "dev",
    "methods": {},
    "version": 1
  },
  "userdoc": {
    "events": {
      "AgreementReached(address,address,string)": {
        "notice": "Events"
      }
    },
    "kind": "user",
    "methods": {
      "landlord()": {
        "notice": "Addresses"
      }
    },
    "version": 1
  }
}